{
  "contractName": "CourseMarketplace",
  "abi": [
    {
      "inputs": [],
      "stateMutability": "nonpayable",
      "type": "constructor"
    },
    {
      "inputs": [],
      "name": "CourseHasOwner",
      "type": "error"
    },
    {
      "inputs": [],
      "name": "CourseIsNotCreated",
      "type": "error"
    },
    {
      "inputs": [],
      "name": "InvalidState",
      "type": "error"
    },
    {
      "inputs": [],
      "name": "OnlyOwner",
      "type": "error"
    },
    {
      "inputs": [],
      "name": "SenderIsNotCourseOwner",
      "type": "error"
    },
    {
      "inputs": [],
      "name": "isStopped",
      "outputs": [
        {
          "internalType": "bool",
          "name": "",
          "type": "bool"
        }
      ],
      "stateMutability": "view",
      "type": "function",
      "constant": true
    },
    {
      "stateMutability": "payable",
      "type": "receive",
      "payable": true
    },
    {
      "inputs": [
        {
          "internalType": "uint256",
          "name": "amount",
          "type": "uint256"
        }
      ],
      "name": "withdraw",
      "outputs": [],
      "stateMutability": "nonpayable",
      "type": "function"
    },
    {
      "inputs": [],
      "name": "emergencyWithdraw",
      "outputs": [],
      "stateMutability": "nonpayable",
      "type": "function"
    },
    {
      "inputs": [],
      "name": "selfDestruct",
      "outputs": [],
      "stateMutability": "nonpayable",
      "type": "function"
    },
    {
      "inputs": [],
      "name": "stopContract",
      "outputs": [],
      "stateMutability": "nonpayable",
      "type": "function"
    },
    {
      "inputs": [],
      "name": "resumeContract",
      "outputs": [],
      "stateMutability": "nonpayable",
      "type": "function"
    },
    {
      "inputs": [
        {
          "internalType": "bytes16",
          "name": "courseId",
          "type": "bytes16"
        },
        {
          "internalType": "bytes32",
          "name": "proof",
          "type": "bytes32"
        }
      ],
      "name": "purchaseCourse",
      "outputs": [],
      "stateMutability": "payable",
      "type": "function",
      "payable": true
    },
    {
      "inputs": [
        {
          "internalType": "bytes32",
          "name": "courseHash",
          "type": "bytes32"
        }
      ],
      "name": "repurchaseCourse",
      "outputs": [],
      "stateMutability": "payable",
      "type": "function",
      "payable": true
    },
    {
      "inputs": [
        {
          "internalType": "bytes32",
          "name": "courseHash",
          "type": "bytes32"
        }
      ],
      "name": "activateCourse",
      "outputs": [],
      "stateMutability": "nonpayable",
      "type": "function"
    },
    {
      "inputs": [
        {
          "internalType": "bytes32",
          "name": "courseHash",
          "type": "bytes32"
        }
      ],
      "name": "deactivateCourse",
      "outputs": [],
      "stateMutability": "nonpayable",
      "type": "function"
    },
    {
      "inputs": [
        {
          "internalType": "address",
          "name": "newOwner",
          "type": "address"
        }
      ],
      "name": "transferOwnership",
      "outputs": [],
      "stateMutability": "nonpayable",
      "type": "function"
    },
    {
      "inputs": [],
      "name": "getCourseCount",
      "outputs": [
        {
          "internalType": "uint256",
          "name": "",
          "type": "uint256"
        }
      ],
      "stateMutability": "view",
      "type": "function",
      "constant": true
    },
    {
      "inputs": [
        {
          "internalType": "uint256",
          "name": "index",
          "type": "uint256"
        }
      ],
      "name": "getCourseHashAtIndex",
      "outputs": [
        {
          "internalType": "bytes32",
          "name": "",
          "type": "bytes32"
        }
      ],
      "stateMutability": "view",
      "type": "function",
      "constant": true
    },
    {
      "inputs": [
        {
          "internalType": "bytes32",
          "name": "courseHash",
          "type": "bytes32"
        }
      ],
      "name": "getCourseByHash",
      "outputs": [
        {
          "components": [
            {
              "internalType": "uint256",
              "name": "id",
              "type": "uint256"
            },
            {
              "internalType": "uint256",
              "name": "price",
              "type": "uint256"
            },
            {
              "internalType": "bytes32",
              "name": "proof",
              "type": "bytes32"
            },
            {
              "internalType": "address",
              "name": "owner",
              "type": "address"
            },
            {
              "internalType": "enum CourseMarketplace.State",
              "name": "state",
              "type": "uint8"
            }
          ],
          "internalType": "struct CourseMarketplace.Course",
          "name": "",
          "type": "tuple"
        }
      ],
      "stateMutability": "view",
      "type": "function",
      "constant": true
    },
    {
      "inputs": [],
      "name": "getContractOwner",
      "outputs": [
        {
          "internalType": "address",
          "name": "",
          "type": "address"
        }
      ],
      "stateMutability": "view",
      "type": "function",
      "constant": true
    }
  ],
  "bytecode": "0x608060405260008060006101000a81548160ff02191690831515021790555034801561002a57600080fd5b5061003a3361003f60201b60201c565b610083565b80600460006101000a81548173ffffffffffffffffffffffffffffffffffffffff021916908373ffffffffffffffffffffffffffffffffffffffff16021790555050565b611a43806100926000396000f3fe6080604052600436106100ec5760003560e01c80636d11290b1161008a578063c4bc5da511610059578063c4bc5da5146102b8578063d76821cb146102cf578063db2e21bc146102eb578063f2fde38b14610302576100f3565b80636d11290b14610210578063935d7e6d1461024d57806396cfda06146102765780639cb8a26a146102a1576100f3565b80633f683b6a116100c65780633f683b6a14610161578063442890d51461018c5780636136e1eb146101b757806362e4e6ac146101d3576100f3565b806312253a6c146100f85780632e1a7d4d1461010f5780633926257214610138576100f3565b366100f357005b600080fd5b34801561010457600080fd5b5061010d61032b565b005b34801561011b57600080fd5b5061013660048036038101906101319190611493565b6103b3565b005b34801561014457600080fd5b5061015f600480360381019061015a919061146a565b6104f1565b005b34801561016d57600080fd5b506101766106dd565b60405161018391906116b2565b60405180910390f35b34801561019857600080fd5b506101a16106ee565b6040516101ae9190611697565b60405180910390f35b6101d160048036038101906101cc919061146a565b610718565b005b3480156101df57600080fd5b506101fa60048036038101906101f5919061146a565b6108df565b6040516102079190611748565b60405180910390f35b34801561021c57600080fd5b5061023760048036038101906102329190611493565b610a07565b60405161024491906116cd565b60405180910390f35b34801561025957600080fd5b50610274600480360381019061026f919061146a565b610a24565b005b34801561028257600080fd5b5061028b610cef565b6040516102989190611763565b60405180910390f35b3480156102ad57600080fd5b506102b6610cf9565b005b3480156102c457600080fd5b506102cd610db7565b005b6102e960048036038101906102e4919061142e565b610e3f565b005b3480156102f757600080fd5b50610300611044565b005b34801561030e57600080fd5b5061032960048036038101906103249190611405565b611198565b005b6103336106ee565b73ffffffffffffffffffffffffffffffffffffffff163373ffffffffffffffffffffffffffffffffffffffff1614610397576040517f5fc483c500000000000000000000000000000000000000000000000000000000815260040160405180910390fd5b60016000806101000a81548160ff021916908315150217905550565b6103bb6106ee565b73ffffffffffffffffffffffffffffffffffffffff163373ffffffffffffffffffffffffffffffffffffffff161461041f576040517f5fc483c500000000000000000000000000000000000000000000000000000000815260040160405180910390fd5b6000600460009054906101000a900473ffffffffffffffffffffffffffffffffffffffff1673ffffffffffffffffffffffffffffffffffffffff168260405161046790611682565b60006040518083038185875af1925050503d80600081146104a4576040519150601f19603f3d011682016040523d82523d6000602084013e6104a9565b606091505b50509050806104ed576040517f08c379a00000000000000000000000000000000000000000000000000000000081526004016104e490611708565b60405180910390fd5b5050565b60008054906101000a900460ff161561050957600080fd5b6105116106ee565b73ffffffffffffffffffffffffffffffffffffffff163373ffffffffffffffffffffffffffffffffffffffff1614610575576040517f5fc483c500000000000000000000000000000000000000000000000000000000815260040160405180910390fd5b61057e81611210565b6105b4576040517f4db0c48300000000000000000000000000000000000000000000000000000000815260040160405180910390fd5b600060016000838152602001908152602001600020905060006002811115610605577f4e487b7100000000000000000000000000000000000000000000000000000000600052602160045260246000fd5b8160030160149054906101000a900460ff16600281111561064f577f4e487b7100000000000000000000000000000000000000000000000000000000600052602160045260246000fd5b14610686576040517fbaf3f0f700000000000000000000000000000000000000000000000000000000815260040160405180910390fd5b60018160030160146101000a81548160ff021916908360028111156106d4577f4e487b7100000000000000000000000000000000000000000000000000000000600052602160045260246000fd5b02179055505050565b60008054906101000a900460ff1681565b6000600460009054906101000a900473ffffffffffffffffffffffffffffffffffffffff16905090565b60008054906101000a900460ff161561073057600080fd5b61073981611210565b61076f576040517f4db0c48300000000000000000000000000000000000000000000000000000000815260040160405180910390fd5b6107788161127f565b6107ae576040517fcce31cc400000000000000000000000000000000000000000000000000000000815260040160405180910390fd5b60006001600083815260200190815260200160002090506002808111156107fe577f4e487b7100000000000000000000000000000000000000000000000000000000600052602160045260246000fd5b8160030160149054906101000a900460ff166002811115610848577f4e487b7100000000000000000000000000000000000000000000000000000000600052602160045260246000fd5b1461087f576040517fbaf3f0f700000000000000000000000000000000000000000000000000000000815260040160405180910390fd5b60008160030160146101000a81548160ff021916908360028111156108cd577f4e487b7100000000000000000000000000000000000000000000000000000000600052602160045260246000fd5b02179055503481600101819055505050565b6108e7611331565b600160008381526020019081526020016000206040518060a00160405290816000820154815260200160018201548152602001600282015481526020016003820160009054906101000a900473ffffffffffffffffffffffffffffffffffffffff1673ffffffffffffffffffffffffffffffffffffffff1673ffffffffffffffffffffffffffffffffffffffff1681526020016003820160149054906101000a900460ff1660028111156109c4577f4e487b7100000000000000000000000000000000000000000000000000000000600052602160045260246000fd5b60028111156109fc577f4e487b7100000000000000000000000000000000000000000000000000000000600052602160045260246000fd5b815250509050919050565b600060026000838152602001908152602001600020549050919050565b60008054906101000a900460ff1615610a3c57600080fd5b610a446106ee565b73ffffffffffffffffffffffffffffffffffffffff163373ffffffffffffffffffffffffffffffffffffffff1614610aa8576040517f5fc483c500000000000000000000000000000000000000000000000000000000815260040160405180910390fd5b610ab181611210565b610ae7576040517f4db0c48300000000000000000000000000000000000000000000000000000000815260040160405180910390fd5b600060016000838152602001908152602001600020905060006002811115610b38577f4e487b7100000000000000000000000000000000000000000000000000000000600052602160045260246000fd5b8160030160149054906101000a900460ff166002811115610b82577f4e487b7100000000000000000000000000000000000000000000000000000000600052602160045260246000fd5b14610bb9576040517fbaf3f0f700000000000000000000000000000000000000000000000000000000815260040160405180910390fd5b60008160030160009054906101000a900473ffffffffffffffffffffffffffffffffffffffff1673ffffffffffffffffffffffffffffffffffffffff168260010154604051610c0790611682565b60006040518083038185875af1925050503d8060008114610c44576040519150601f19603f3d011682016040523d82523d6000602084013e610c49565b606091505b5050905080610c8d576040517f08c379a0000000000000000000000000000000000000000000000000000000008152600401610c8490611728565b60405180910390fd5b60028260030160146101000a81548160ff02191690836002811115610cdb577f4e487b7100000000000000000000000000000000000000000000000000000000600052602160045260246000fd5b021790555060008260010181905550505050565b6000600354905090565b60008054906101000a900460ff16610d1057600080fd5b610d186106ee565b73ffffffffffffffffffffffffffffffffffffffff163373ffffffffffffffffffffffffffffffffffffffff1614610d7c576040517f5fc483c500000000000000000000000000000000000000000000000000000000815260040160405180910390fd5b600460009054906101000a900473ffffffffffffffffffffffffffffffffffffffff1673ffffffffffffffffffffffffffffffffffffffff16ff5b610dbf6106ee565b73ffffffffffffffffffffffffffffffffffffffff163373ffffffffffffffffffffffffffffffffffffffff1614610e23576040517f5fc483c500000000000000000000000000000000000000000000000000000000815260040160405180910390fd5b60008060006101000a81548160ff021916908315150217905550565b60008054906101000a900460ff1615610e5757600080fd5b60008233604051602001610e6c929190611656565b604051602081830303815290604052805190602001209050610e8d8161127f565b15610ec4576040517fb0fc2d9700000000000000000000000000000000000000000000000000000000815260040160405180910390fd5b600060036000815480929190610ed99061183d565b9190505590508160026000838152602001908152602001600020819055506040518060a001604052808281526020013481526020018481526020013373ffffffffffffffffffffffffffffffffffffffff16815260200160006002811115610f6a577f4e487b7100000000000000000000000000000000000000000000000000000000600052602160045260246000fd5b8152506001600084815260200190815260200160002060008201518160000155602082015181600101556040820151816002015560608201518160030160006101000a81548173ffffffffffffffffffffffffffffffffffffffff021916908373ffffffffffffffffffffffffffffffffffffffff16021790555060808201518160030160146101000a81548160ff02191690836002811115611036577f4e487b7100000000000000000000000000000000000000000000000000000000600052602160045260246000fd5b021790555090505050505050565b60008054906101000a900460ff1661105b57600080fd5b6110636106ee565b73ffffffffffffffffffffffffffffffffffffffff163373ffffffffffffffffffffffffffffffffffffffff16146110c7576040517f5fc483c500000000000000000000000000000000000000000000000000000000815260040160405180910390fd5b6000600460009054906101000a900473ffffffffffffffffffffffffffffffffffffffff1673ffffffffffffffffffffffffffffffffffffffff164760405161110f90611682565b60006040518083038185875af1925050503d806000811461114c576040519150601f19603f3d011682016040523d82523d6000602084013e611151565b606091505b5050905080611195576040517f08c379a000000000000000000000000000000000000000000000000000000000815260040161118c906116e8565b60405180910390fd5b50565b6111a06106ee565b73ffffffffffffffffffffffffffffffffffffffff163373ffffffffffffffffffffffffffffffffffffffff1614611204576040517f5fc483c500000000000000000000000000000000000000000000000000000000815260040160405180910390fd5b61120d816112ed565b50565b60008073ffffffffffffffffffffffffffffffffffffffff166001600084815260200190815260200160002060030160009054906101000a900473ffffffffffffffffffffffffffffffffffffffff1673ffffffffffffffffffffffffffffffffffffffff1614159050919050565b60003373ffffffffffffffffffffffffffffffffffffffff166001600084815260200190815260200160002060030160009054906101000a900473ffffffffffffffffffffffffffffffffffffffff1673ffffffffffffffffffffffffffffffffffffffff16149050919050565b80600460006101000a81548173ffffffffffffffffffffffffffffffffffffffff021916908373ffffffffffffffffffffffffffffffffffffffff16021790555050565b6040518060a00160405280600081526020016000815260200160008019168152602001600073ffffffffffffffffffffffffffffffffffffffff168152602001600060028111156113ab577f4e487b7100000000000000000000000000000000000000000000000000000000600052602160045260246000fd5b81525090565b6000813590506113c0816119b1565b92915050565b6000813590506113d5816119c8565b92915050565b6000813590506113ea816119df565b92915050565b6000813590506113ff816119f6565b92915050565b60006020828403121561141757600080fd5b6000611425848285016113b1565b91505092915050565b6000806040838503121561144157600080fd5b600061144f858286016113c6565b9250506020611460858286016113db565b9150509250929050565b60006020828403121561147c57600080fd5b600061148a848285016113db565b91505092915050565b6000602082840312156114a557600080fd5b60006114b3848285016113f0565b91505092915050565b6114c58161179a565b82525050565b6114d48161179a565b82525050565b6114eb6114e68261179a565b611886565b82525050565b6114fa816117ac565b82525050565b61151161150c826117b8565b611898565b82525050565b611520816117e4565b82525050565b61152f816117e4565b82525050565b61153e8161182b565b82525050565b6000611551600f83611789565b915061155c8261191f565b602082019050919050565b6000611574600f83611789565b915061157f82611948565b602082019050919050565b6000611597601083611789565b91506115a282611971565b602082019050919050565b60006115ba60008361177e565b91506115c58261199a565b600082019050919050565b60a0820160008201516115e66000850182611638565b5060208201516115f96020850182611638565b50604082015161160c6040850182611517565b50606082015161161f60608501826114bc565b5060808201516116326080850182611535565b50505050565b61164181611821565b82525050565b61165081611821565b82525050565b60006116628285611500565b60108201915061167282846114da565b6014820191508190509392505050565b600061168d826115ad565b9150819050919050565b60006020820190506116ac60008301846114cb565b92915050565b60006020820190506116c760008301846114f1565b92915050565b60006020820190506116e26000830184611526565b92915050565b6000602082019050818103600083015261170181611544565b9050919050565b6000602082019050818103600083015261172181611567565b9050919050565b600060208201905081810360008301526117418161158a565b9050919050565b600060a08201905061175d60008301846115d0565b92915050565b60006020820190506117786000830184611647565b92915050565b600081905092915050565b600082825260208201905092915050565b60006117a582611801565b9050919050565b60008115159050919050565b60007fffffffffffffffffffffffffffffffff0000000000000000000000000000000082169050919050565b6000819050919050565b60008190506117fc8261199d565b919050565b600073ffffffffffffffffffffffffffffffffffffffff82169050919050565b6000819050919050565b6000611836826117ee565b9050919050565b600061184882611821565b91507fffffffffffffffffffffffffffffffffffffffffffffffffffffffffffffffff82141561187b5761187a6118b4565b5b600182019050919050565b6000611891826118a2565b9050919050565b6000819050919050565b60006118ad82611912565b9050919050565b7f4e487b7100000000000000000000000000000000000000000000000000000000600052601160045260246000fd5b7f4e487b7100000000000000000000000000000000000000000000000000000000600052602160045260246000fd5b60008160601b9050919050565b7f5472616e73666572206661696c65640000000000000000000000000000000000600082015250565b7f5769746864726177206661696c65640000000000000000000000000000000000600082015250565b7f5472616e73666572206661696c65642100000000000000000000000000000000600082015250565b50565b600381106119ae576119ad6118e3565b5b50565b6119ba8161179a565b81146119c557600080fd5b50565b6119d1816117b8565b81146119dc57600080fd5b50565b6119e8816117e4565b81146119f357600080fd5b50565b6119ff81611821565b8114611a0a57600080fd5b5056fea2646970667358221220a5c9443c86af769b9bb8c92acfbc5ac0eaaae2360b5782ebbf8a1d3775e438a064736f6c63430008040033",
  "immutableReferences": {},
  "source": "// SPDX-License-Identifier: MIT\npragma solidity >=0.4.22 <0.9.0;\n\n\ncontract CourseMarketplace {\n\n    enum State {\n        Purchased,\n        Activated,\n        Deactivated\n    }\n\n    struct Course {\n        uint id; //32 bytes\n        uint price; //32 bytes\n        bytes32 proof; //32 bytes\n        address owner; //20 bytes\n        State state; //1 byte\n    }\n\n    bool public isStopped = false;\n\n    // mapping of courseHash to Course data\n    mapping(bytes32 => Course) private ownedCourses;\n\n    // mapping of courseId to courseHash\n    mapping(uint => bytes32) private ownedCourseHash;\n\n    // number of all courses + id of the course\n    uint private totalOwnedCourses;\n\n    address payable private owner;\n\n    constructor() {\n        setContractorOwner(msg.sender);\n    }\n\n    /// Course has invalid state!\n    error InvalidState();\n\n    /// Course is not created!\n    error CourseIsNotCreated();\n\n    /// Course has already a Owner!\n    error CourseHasOwner();\n\n\t\t/// Sender is not Owner!\n    error SenderIsNotCourseOwner();\n\n    /// Only owner can set the owner\n    error OnlyOwner();\n\n    modifier onlyOwner {\n        if (msg.sender != getContractOwner() ) {\n            revert OnlyOwner();\n        }\n        _;\n    }\n\n\tmodifier onlyWhenNotStopped {\n\t\trequire(!isStopped);\n\t\t_;\n\t}\n\n\tmodifier onlyWhenStopped {\n\trequire(isStopped);\n\t_;\n\t}\n\n\t\treceive() external payable {}\n\n\t\tfunction withdraw(uint amount)\n\t\t\texternal\n\t\t\tonlyOwner\n\t\t {\n\t\t\t (bool success, ) = owner.call{value: amount}(\"\");\n\t\t\t require(success, \"Withdraw failed\");\n\t\t }\n\n\t\tfunction emergencyWithdraw()\n\t\t\texternal\n\t\t\tonlyWhenStopped\n\t\t\tonlyOwner\n\t\t{\n\t\t\t(bool success, ) = owner.call{value: address(this).balance}(\"\");\n\t\t\trequire(success, \"Transfer failed\");\n\t\t}\n\n\t\tfunction selfDestruct()\n\t\t\texternal\n\t\t\tonlyWhenStopped\n\t\t\tonlyOwner\n\t\t{\n\t\t\tselfdestruct(owner);\n\t\t}\n\n    function stopContract()\n\t\t  external\n\t\t\tonlyOwner\n\t\t{\n\t\t\t\tisStopped = true;\n\t\t}\n\n\t\tfunction resumeContract()\n\t\t  external\n\t\t\tonlyOwner\n\t\t{\n\t\t\t\tisStopped = false;\n\t\t}\n\n    function purchaseCourse(\n        bytes16 courseId,     // 0x00000000000000000000000000003130\n        bytes32 proof         // 0x0000000000000000000000000000313000000000000000000000000000003130\n    ) \n    \texternal \n\t\t\tpayable\n\t\t\tonlyWhenNotStopped\n    {\n        bytes32 courseHash = keccak256(abi.encodePacked(courseId, msg.sender));\n\n        if(hasCourseOwnership(courseHash)) {\n            revert CourseHasOwner();\n        }\n\n        uint id = totalOwnedCourses++;\n\n        ownedCourseHash[id] = courseHash;\n        ownedCourses[courseHash] = Course({\n            id: id,\n            price: msg.value,\n            proof: proof,\n            owner: msg.sender,\n            state: State.Purchased\n        });\n    }\n\n    function repurchaseCourse(bytes32 courseHash)\n\t\t\texternal payable onlyWhenNotStopped {\n\t\t\t\t\tif(!isCourseCreated(courseHash)) {\n\t\t\t\t\t\t\trevert CourseIsNotCreated();\n\t\t\t\t\t}\n\n\t\t\t\t\tif(!hasCourseOwnership(courseHash)) {\n\t\t\t\t\t\t\trevert SenderIsNotCourseOwner();\n\t\t\t\t\t}\n\n\t\t\t\t\tCourse storage course = ownedCourses[courseHash];\n\n\t\t\t\t\tif(course.state != State.Deactivated) {\n\t\t\t\t\t\t\trevert InvalidState();\n\t\t\t\t\t}\n\n\t\t\t\t\tcourse.state = State.Purchased;\n\t\t\t\t\tcourse.price = msg.value;\n    }\n\n    function activateCourse(\n        bytes32 courseHash\n    ) external onlyWhenNotStopped onlyOwner \n    {\n      if (!isCourseCreated(courseHash)) {\n        revert CourseIsNotCreated();\n      }\n\n      Course storage course = ownedCourses[courseHash];\n\n      if(course.state != State.Purchased) {\n          revert InvalidState();\n      }\n\n      course.state = State.Activated;\n    }\n\n\n    function deactivateCourse(bytes32 courseHash) \n    \texternal \n\t\t\tonlyWhenNotStopped\n\t\t\tonlyOwner\n    {\n      if (!isCourseCreated(courseHash)) {\n        revert CourseIsNotCreated();\n      }\n\n      Course storage course = ownedCourses[courseHash];\n\n      if(course.state != State.Purchased) {\n          revert InvalidState();\n      }\n\n      (bool success, ) = course.owner.call{ value: course.price }(\"\");\n      require(success, \"Transfer failed!\");\n\n      course.state = State.Deactivated;\n      course.price = 0;\n    }\n\n    function transferOwnership(address newOwner)\n    external\n    onlyOwner\n    {\n        setContractorOwner(newOwner);\n    }\n\n    function getCourseCount()\n    external view returns (uint)\n    {\n        return totalOwnedCourses;\n    }\n\n    function getCourseHashAtIndex(uint index)\n    external view returns (bytes32)\n    {\n        return ownedCourseHash[index];\n    }\n\n    function getCourseByHash(bytes32 courseHash)\n    external view returns (Course memory)\n    {\n        return ownedCourses[courseHash];\n    }\n\n    function getContractOwner()\n    public\n    view\n    returns (address)\n    {\n        return owner;\n    }\n\n    function setContractorOwner(address newOwner) private {\n        owner = payable(newOwner);\n    }\n\n    function isCourseCreated(bytes32 courseHash) private view \n      returns (bool) {\n      return ownedCourses[courseHash].owner != 0x0000000000000000000000000000000000000000;\n    }\n\n    function hasCourseOwnership(bytes32 courseHash)\n    private view returns (bool)\n    {\n        return ownedCourses[courseHash].owner == msg.sender;\n    }\n\n}",
  "sourcePath": "/Users/apple/Desktop/Web Projects/DApps/marketplace-dapp/contracts/CourseMarketplace.sol",
  "compiler": {
    "name": "solc",
    "version": "0.8.4+commit.c7e474f2.Emscripten.clang"
  },
  "schemaVersion": "3.4.4",
  "updatedAt": "2022-02-15T12:28:22.020Z",
  "networkType": "ethereum",
  "devdoc": {
    "kind": "dev",
    "methods": {},
    "version": 1
  },
  "userdoc": {
    "errors": {
      "CourseHasOwner()": [
        {
          "notice": "Course has already a Owner!"
        }
      ],
      "CourseIsNotCreated()": [
        {
          "notice": "Course is not created!"
        }
      ],
      "InvalidState()": [
        {
          "notice": "Course has invalid state!"
        }
      ],
      "OnlyOwner()": [
        {
          "notice": "Only owner can set the owner"
        }
      ],
      "SenderIsNotCourseOwner()": [
        {
          "notice": "Sender is not Owner!"
        }
      ]
    },
    "kind": "user",
    "methods": {},
    "version": 1
  }
}